{
  "_format": "hh-sol-artifact-1",
  "contractName": "SkillValidator",
  "sourceName": "contracts/SkillValidator.sol",
  "abi": [
    {
      "anonymous": false,
      "inputs": [
        {
          "indexed": true,
          "internalType": "address",
          "name": "student",
          "type": "address"
        },
        {
          "indexed": false,
          "internalType": "string",
          "name": "skillName",
          "type": "string"
        },
        {
          "indexed": false,
          "internalType": "string",
          "name": "proficiencyLevel",
          "type": "string"
        },
        {
          "indexed": false,
          "internalType": "uint256",
          "name": "timestamp",
          "type": "uint256"
        }
      ],
      "name": "SkillValidated",
      "type": "event"
    },
    {
      "inputs": [
        {
          "internalType": "address",
          "name": "_student",
          "type": "address"
        },
        {
          "internalType": "string",
          "name": "_skillName",
          "type": "string"
        }
      ],
      "name": "getSkillDetail",
      "outputs": [
        {
          "components": [
            {
              "internalType": "string",
              "name": "skillName",
              "type": "string"
            },
            {
              "internalType": "string",
              "name": "proficiencyLevel",
              "type": "string"
            },
            {
              "internalType": "bytes32",
              "name": "certificateHash",
              "type": "bytes32"
            },
            {
              "internalType": "address",
              "name": "student",
              "type": "address"
            },
            {
              "internalType": "uint256",
              "name": "validatedAt",
              "type": "uint256"
            }
          ],
          "internalType": "struct SkillValidator.SkillValidation",
          "name": "",
          "type": "tuple"
        }
      ],
      "stateMutability": "view",
      "type": "function"
    },
    {
      "inputs": [
        {
          "internalType": "address",
          "name": "_student",
          "type": "address"
        }
      ],
      "name": "getStudentSkills",
      "outputs": [
        {
          "internalType": "string[]",
          "name": "",
          "type": "string[]"
        }
      ],
      "stateMutability": "view",
      "type": "function"
    },
    {
      "inputs": [
        {
          "internalType": "address",
          "name": "",
          "type": "address"
        },
        {
          "internalType": "string",
          "name": "",
          "type": "string"
        }
      ],
      "name": "studentSkills",
      "outputs": [
        {
          "internalType": "string",
          "name": "skillName",
          "type": "string"
        },
        {
          "internalType": "string",
          "name": "proficiencyLevel",
          "type": "string"
        },
        {
          "internalType": "bytes32",
          "name": "certificateHash",
          "type": "bytes32"
        },
        {
          "internalType": "address",
          "name": "student",
          "type": "address"
        },
        {
          "internalType": "uint256",
          "name": "validatedAt",
          "type": "uint256"
        }
      ],
      "stateMutability": "view",
      "type": "function"
    },
    {
      "inputs": [
        {
          "internalType": "address",
          "name": "",
          "type": "address"
        },
        {
          "internalType": "uint256",
          "name": "",
          "type": "uint256"
        }
      ],
      "name": "studentSkillsList",
      "outputs": [
        {
          "internalType": "string",
          "name": "",
          "type": "string"
        }
      ],
      "stateMutability": "view",
      "type": "function"
    },
    {
      "inputs": [
        {
          "internalType": "address",
          "name": "_student",
          "type": "address"
        },
        {
          "internalType": "string",
          "name": "_skillName",
          "type": "string"
        },
        {
          "internalType": "string",
          "name": "_proficiencyLevel",
          "type": "string"
        },
        {
          "internalType": "bytes32",
          "name": "_certificateHash",
          "type": "bytes32"
        }
      ],
      "name": "validateSkill",
      "outputs": [],
      "stateMutability": "nonpayable",
      "type": "function"
    }
  ],
  "bytecode": "0x608060405234801561001057600080fd5b50610db4806100206000396000f3fe608060405234801561001057600080fd5b50600436106100575760003560e01c806307d059471461005c5780631dc2e19614610085578063516503421461009a578063608a2b8d146100be578063f0167d67146100de575b600080fd5b61006f61006a3660046107fa565b6100fe565b60405161007c9190610874565b60405180910390f35b610098610093366004610931565b6101b7565b005b6100ad6100a83660046109ad565b6103d2565b60405161007c9594939291906109fb565b6100d16100cc366004610a47565b610535565b60405161007c9190610a62565b6100f16100ec3660046109ad565b610624565b60405161007c9190610ac4565b6001602052816000526040600020818154811061011a57600080fd5b9060005260206000200160009150915050805461013690610b30565b80601f016020809104026020016040519081016040528092919081815260200182805461016290610b30565b80156101af5780601f10610184576101008083540402835291602001916101af565b820191906000526020600020905b81548152906001019060200180831161019257829003601f168201915b505050505081565b6040518060a00160405280848152602001838152602001828152602001856001600160a01b0316815260200142815250600080866001600160a01b03166001600160a01b03168152602001908152602001600020846040516102199190610b6a565b908152604051908190036020019020815181906102369082610bd5565b506020820151600182019061024b9082610bd5565b506040820151600282015560608201516003820180546001600160a01b0319166001600160a01b039092169190911790556080909101516004909101556000805b6001600160a01b03861660009081526001602052604090205481101561034d57846040516020016102bd9190610b6a565b60408051601f1981840301815291815281516020928301206001600160a01b0389166000908152600190935291208054839081106102fd576102fd610c95565b906000526020600020016040516020016103179190610cab565b604051602081830303815290604052805190602001200361033b576001915061034d565b8061034581610d21565b91505061028c565b5080610386576001600160a01b03851660009081526001602081815260408320805492830181558352909120016103848582610bd5565b505b846001600160a01b03167f1c1f3b0bba63d42a2750e81070f052d8a9a2f346ba938b4803d3c87fd5a2fcf48585426040516103c393929190610d48565b60405180910390a25050505050565b6000602081815292815260409020815180830184018051928152908401929093019190912091528054819061040690610b30565b80601f016020809104026020016040519081016040528092919081815260200182805461043290610b30565b801561047f5780601f106104545761010080835404028352916020019161047f565b820191906000526020600020905b81548152906001019060200180831161046257829003601f168201915b50505050509080600101805461049490610b30565b80601f01602080910402602001604051908101604052809291908181526020018280546104c090610b30565b801561050d5780601f106104e25761010080835404028352916020019161050d565b820191906000526020600020905b8154815290600101906020018083116104f057829003601f168201915b5050505060028301546003840154600490940154929390926001600160a01b03909116915085565b6001600160a01b0381166000908152600160209081526040808320805482518185028101850190935280835260609492939192909184015b8282101561061957838290600052602060002001805461058c90610b30565b80601f01602080910402602001604051908101604052809291908181526020018280546105b890610b30565b80156106055780601f106105da57610100808354040283529160200191610605565b820191906000526020600020905b8154815290600101906020018083116105e857829003601f168201915b50505050508152602001906001019061056d565b505050509050919050565b6040805160a081018252606080825260208083018290526000838501819052918301829052608083018290526001600160a01b03861682528190528290209151909190610672908490610b6a565b90815260200160405180910390206040518060a001604052908160008201805461069b90610b30565b80601f01602080910402602001604051908101604052809291908181526020018280546106c790610b30565b80156107145780601f106106e957610100808354040283529160200191610714565b820191906000526020600020905b8154815290600101906020018083116106f757829003601f168201915b5050505050815260200160018201805461072d90610b30565b80601f016020809104026020016040519081016040528092919081815260200182805461075990610b30565b80156107a65780601f1061077b576101008083540402835291602001916107a6565b820191906000526020600020905b81548152906001019060200180831161078957829003601f168201915b50505091835250506002820154602082015260038201546001600160a01b031660408201526004909101546060909101529392505050565b80356001600160a01b03811681146107f557600080fd5b919050565b6000806040838503121561080d57600080fd5b610816836107de565b946020939093013593505050565b60005b8381101561083f578181015183820152602001610827565b50506000910152565b60008151808452610860816020860160208601610824565b601f01601f19169290920160200192915050565b6020815260006108876020830184610848565b9392505050565b634e487b7160e01b600052604160045260246000fd5b600082601f8301126108b557600080fd5b813567ffffffffffffffff808211156108d0576108d061088e565b604051601f8301601f19908116603f011681019082821181831017156108f8576108f861088e565b8160405283815286602085880101111561091157600080fd5b836020870160208301376000602085830101528094505050505092915050565b6000806000806080858703121561094757600080fd5b610950856107de565b9350602085013567ffffffffffffffff8082111561096d57600080fd5b610979888389016108a4565b9450604087013591508082111561098f57600080fd5b5061099c878288016108a4565b949793965093946060013593505050565b600080604083850312156109c057600080fd5b6109c9836107de565b9150602083013567ffffffffffffffff8111156109e557600080fd5b6109f1858286016108a4565b9150509250929050565b60a081526000610a0e60a0830188610848565b8281036020840152610a208188610848565b604084019690965250506001600160a01b0392909216606083015260809091015292915050565b600060208284031215610a5957600080fd5b610887826107de565b6000602080830181845280855180835260408601915060408160051b870101925083870160005b82811015610ab757603f19888603018452610aa5858351610848565b94509285019290850190600101610a89565b5092979650505050505050565b602081526000825160a06020840152610ae060c0840182610848565b90506020840151601f19848303016040850152610afd8282610848565b9150506040840151606084015260018060a01b036060850151166080840152608084015160a08401528091505092915050565b600181811c90821680610b4457607f821691505b602082108103610b6457634e487b7160e01b600052602260045260246000fd5b50919050565b60008251610b7c818460208701610824565b9190910192915050565b601f821115610bd057600081815260208120601f850160051c81016020861015610bad5750805b601f850160051c820191505b81811015610bcc57828155600101610bb9565b5050505b505050565b815167ffffffffffffffff811115610bef57610bef61088e565b610c0381610bfd8454610b30565b84610b86565b602080601f831160018114610c385760008415610c205750858301515b600019600386901b1c1916600185901b178555610bcc565b600085815260208120601f198616915b82811015610c6757888601518255948401946001909101908401610c48565b5085821015610c855787850151600019600388901b60f8161c191681555b5050505050600190811b01905550565b634e487b7160e01b600052603260045260246000fd5b6000808354610cb981610b30565b60018281168015610cd15760018114610ce657610d15565b60ff1984168752821515830287019450610d15565b8760005260208060002060005b85811015610d0c5781548a820152908401908201610cf3565b50505082870194505b50929695505050505050565b600060018201610d4157634e487b7160e01b600052601160045260246000fd5b5060010190565b606081526000610d5b6060830186610848565b8281036020840152610d6d8186610848565b91505082604083015294935050505056fea26469706673582212208060c35a4a156bd3277438624d013cd5b84d91d564fb03db2dac398c70c06bd964736f6c63430008130033",
  "linkReferences": {},
  "deployedLinkReferences": {}
}