{
  "_format": "hh-sol-artifact-1",
  "contractName": "FraudDetectionStore",
  "sourceName": "contracts/FraudDetectionStore.sol",
  "abi": [
    {
      "inputs": [],
      "stateMutability": "nonpayable",
      "type": "constructor"
    },
    {
      "anonymous": false,
      "inputs": [
        {
          "indexed": true,
          "internalType": "bytes32",
          "name": "certificateHash",
          "type": "bytes32"
        },
        {
          "indexed": false,
          "internalType": "bool",
          "name": "isFraud",
          "type": "bool"
        },
        {
          "indexed": false,
          "internalType": "uint8",
          "name": "confidence",
          "type": "uint8"
        },
        {
          "indexed": false,
          "internalType": "uint256",
          "name": "timestamp",
          "type": "uint256"
        }
      ],
      "name": "FraudDetected",
      "type": "event"
    },
    {
      "inputs": [],
      "name": "admin",
      "outputs": [
        {
          "internalType": "address",
          "name": "",
          "type": "address"
        }
      ],
      "stateMutability": "view",
      "type": "function"
    },
    {
      "inputs": [
        {
          "internalType": "bytes32",
          "name": "",
          "type": "bytes32"
        }
      ],
      "name": "fraudResults",
      "outputs": [
        {
          "internalType": "bytes32",
          "name": "certificateHash",
          "type": "bytes32"
        },
        {
          "internalType": "bool",
          "name": "isFraudDetected",
          "type": "bool"
        },
        {
          "internalType": "uint8",
          "name": "fraudConfidence",
          "type": "uint8"
        },
        {
          "internalType": "string",
          "name": "fraudType",
          "type": "string"
        },
        {
          "internalType": "uint256",
          "name": "detectedAt",
          "type": "uint256"
        },
        {
          "internalType": "address",
          "name": "detector",
          "type": "address"
        }
      ],
      "stateMutability": "view",
      "type": "function"
    },
    {
      "inputs": [
        {
          "internalType": "bytes32",
          "name": "_certificateHash",
          "type": "bytes32"
        }
      ],
      "name": "getFraudResult",
      "outputs": [
        {
          "components": [
            {
              "internalType": "bytes32",
              "name": "certificateHash",
              "type": "bytes32"
            },
            {
              "internalType": "bool",
              "name": "isFraudDetected",
              "type": "bool"
            },
            {
              "internalType": "uint8",
              "name": "fraudConfidence",
              "type": "uint8"
            },
            {
              "internalType": "string",
              "name": "fraudType",
              "type": "string"
            },
            {
              "internalType": "uint256",
              "name": "detectedAt",
              "type": "uint256"
            },
            {
              "internalType": "address",
              "name": "detector",
              "type": "address"
            }
          ],
          "internalType": "struct FraudDetectionStore.FraudDetectionResult",
          "name": "",
          "type": "tuple"
        }
      ],
      "stateMutability": "view",
      "type": "function"
    },
    {
      "inputs": [],
      "name": "mlServiceAddress",
      "outputs": [
        {
          "internalType": "address",
          "name": "",
          "type": "address"
        }
      ],
      "stateMutability": "view",
      "type": "function"
    },
    {
      "inputs": [
        {
          "internalType": "bytes32",
          "name": "_certificateHash",
          "type": "bytes32"
        },
        {
          "internalType": "bool",
          "name": "_isFraud",
          "type": "bool"
        },
        {
          "internalType": "uint8",
          "name": "_confidence",
          "type": "uint8"
        },
        {
          "internalType": "string",
          "name": "_fraudType",
          "type": "string"
        }
      ],
      "name": "recordFraudDetection",
      "outputs": [],
      "stateMutability": "nonpayable",
      "type": "function"
    },
    {
      "inputs": [
        {
          "internalType": "address",
          "name": "_address",
          "type": "address"
        }
      ],
      "name": "setMLServiceAddress",
      "outputs": [],
      "stateMutability": "nonpayable",
      "type": "function"
    }
  ],
  "bytecode": "0x608060405234801561001057600080fd5b50600280546001600160a01b0319163317905561089f806100326000396000f3fe608060405234801561001057600080fd5b50600436106100625760003560e01c806349abbbe914610067578063b0bf81201461007c578063c213546a146100a5578063ca89a7cc146100b8578063d32d2ccf146100dd578063f851a44014610108575b600080fd5b61007a6100753660046104d9565b61011b565b005b61008f61008a366004610509565b610189565b60405161009c9190610568565b60405180910390f35b61007a6100b33660046105e8565b6102b6565b6100cb6100c6366004610509565b610409565b60405161009c969594939291906106d3565b6001546100f0906001600160a01b031681565b6040516001600160a01b03909116815260200161009c565b6002546100f0906001600160a01b031681565b6002546001600160a01b031633146101675760405162461bcd60e51b815260206004820152600a60248201526927b7363c9030b236b4b760b11b60448201526064015b60405180910390fd5b600180546001600160a01b0319166001600160a01b0392909216919091179055565b6040805160c0810182526000808252602082018190529181018290526060808201526080810182905260a081019190915260008281526020818152604091829020825160c08101845281548152600182015460ff80821615159483019490945261010090049092169282019290925260028201805491929160608401919061021090610720565b80601f016020809104026020016040519081016040528092919081815260200182805461023c90610720565b80156102895780601f1061025e57610100808354040283529160200191610289565b820191906000526020600020905b81548152906001019060200180831161026c57829003601f168201915b5050509183525050600382015460208201526004909101546001600160a01b031660409091015292915050565b6001546001600160a01b031633146103015760405162461bcd60e51b815260206004820152600e60248201526d139bdd08185d5d1a1bdc9a5e995960921b604482015260640161015e565b6040805160c081018252858152841515602080830191825260ff868116848601908152606085018781524260808701523360a087015260008b81529384905295909220845181559251600184018054935161ffff1990941691151561ff0019169190911761010093909216929092021790559151909190600282019061038790826107a9565b506080820151600382015560a090910151600490910180546001600160a01b0319166001600160a01b0390921691909117905560408051841515815260ff84166020820152429181019190915284907f77c5b52beca3dc400c7ef11ff8689fc99caadbda20e0b6250b1879c3296225089060600160405180910390a250505050565b600060208190529081526040902080546001820154600283018054929360ff80841694610100909404169290919061044090610720565b80601f016020809104026020016040519081016040528092919081815260200182805461046c90610720565b80156104b95780601f1061048e576101008083540402835291602001916104b9565b820191906000526020600020905b81548152906001019060200180831161049c57829003601f168201915b5050505060038301546004909301549192916001600160a01b0316905086565b6000602082840312156104eb57600080fd5b81356001600160a01b038116811461050257600080fd5b9392505050565b60006020828403121561051b57600080fd5b5035919050565b6000815180845260005b818110156105485760208185018101518683018201520161052c565b506000602082860101526020601f19601f83011685010191505092915050565b602081528151602082015260208201511515604082015260ff60408301511660608201526000606083015160c060808401526105a760e0840182610522565b608085015160a085810191909152909401516001600160a01b031660c0909301929092525090919050565b634e487b7160e01b600052604160045260246000fd5b600080600080608085870312156105fe57600080fd5b843593506020850135801515811461061557600080fd5b9250604085013560ff8116811461062b57600080fd5b9150606085013567ffffffffffffffff8082111561064857600080fd5b818701915087601f83011261065c57600080fd5b81358181111561066e5761066e6105d2565b604051601f8201601f19908116603f01168101908382118183101715610696576106966105d2565b816040528281528a60208487010111156106af57600080fd5b82602086016020830137600060208483010152809550505050505092959194509250565b868152851515602082015260ff8516604082015260c0606082015260006106fd60c0830186610522565b6080830194909452506001600160a01b039190911660a090910152949350505050565b600181811c9082168061073457607f821691505b60208210810361075457634e487b7160e01b600052602260045260246000fd5b50919050565b601f8211156107a457600081815260208120601f850160051c810160208610156107815750805b601f850160051c820191505b818110156107a05782815560010161078d565b5050505b505050565b815167ffffffffffffffff8111156107c3576107c36105d2565b6107d7816107d18454610720565b8461075a565b602080601f83116001811461080c57600084156107f45750858301515b600019600386901b1c1916600185901b1785556107a0565b600085815260208120601f198616915b8281101561083b5788860151825594840194600190910190840161081c565b50858210156108595787850151600019600388901b60f8161c191681555b5050505050600190811b0190555056fea2646970667358221220e02584b1274d56054302dd71fcfd14a516cdfed43c6ce3ed6ff11ce9ce733f5b64736f6c63430008130033",
  "linkReferences": {},
  "deployedLinkReferences": {}
}