{"contracts/CertificateRegistry.sol":{"CertificateRegistry":{"abi":[{"inputs":[],"stateMutability":"nonpayable","type":"constructor"},{"anonymous":false,"inputs":[{"indexed":true,"internalType":"bytes32","name":"certificateHash","type":"bytes32"},{"indexed":true,"internalType":"address","name":"issuer","type":"address"},{"indexed":true,"internalType":"address","name":"student","type":"address"},{"indexed":false,"internalType":"uint256","name":"timestamp","type":"uint256"}],"name":"CertificateIssued","type":"event"},{"anonymous":false,"inputs":[{"indexed":true,"internalType":"bytes32","name":"certificateHash","type":"bytes32"},{"indexed":false,"internalType":"uint256","name":"timestamp","type":"uint256"}],"name":"CertificateRevoked","type":"event"},{"anonymous":false,"inputs":[{"indexed":true,"internalType":"address","name":"issuer","type":"address"},{"indexed":false,"internalType":"uint256","name":"timestamp","type":"uint256"}],"name":"IssuerVerified","type":"event"},{"inputs":[],"name":"admin","outputs":[{"internalType":"address","name":"","type":"address"}],"stateMutability":"view","type":"function"},{"inputs":[{"internalType":"bytes32","name":"","type":"bytes32"}],"name":"certificates","outputs":[{"internalType":"bytes32","name":"certificateHash","type":"bytes32"},{"internalType":"address","name":"issuer","type":"address"},{"internalType":"address","name":"student","type":"address"},{"internalType":"uint256","name":"issuedAt","type":"uint256"},{"internalType":"string","name":"certificateType","type":"string"},{"internalType":"bool","name":"isRevoked","type":"bool"}],"stateMutability":"view","type":"function"},{"inputs":[{"internalType":"bytes32","name":"_certificateHash","type":"bytes32"}],"name":"getCertificate","outputs":[{"components":[{"internalType":"bytes32","name":"certificateHash","type":"bytes32"},{"internalType":"address","name":"issuer","type":"address"},{"internalType":"address","name":"student","type":"address"},{"internalType":"uint256","name":"issuedAt","type":"uint256"},{"internalType":"string","name":"certificateType","type":"string"},{"internalType":"bool","name":"isRevoked","type":"bool"}],"internalType":"struct CertificateRegistry.Certificate","name":"","type":"tuple"}],"stateMutability":"view","type":"function"},{"inputs":[{"internalType":"bytes32","name":"_certificateHash","type":"bytes32"},{"internalType":"address","name":"_student","type":"address"},{"internalType":"string","name":"_certificateType","type":"string"}],"name":"issueCertificate","outputs":[],"stateMutability":"nonpayable","type":"function"},{"inputs":[{"internalType":"bytes32","name":"_certificateHash","type":"bytes32"}],"name":"revokeCertificate","outputs":[],"stateMutability":"nonpayable","type":"function"},{"inputs":[{"internalType":"address","name":"","type":"address"}],"name":"verifiedIssuers","outputs":[{"internalType":"bool","name":"","type":"bool"}],"stateMutability":"view","type":"function"},{"inputs":[{"internalType":"bytes32","name":"_certificateHash","type":"bytes32"}],"name":"verifyCertificate","outputs":[{"internalType":"bool","name":"","type":"bool"}],"stateMutability":"view","type":"function"},{"inputs":[{"internalType":"address","name":"_issuer","type":"address"}],"name":"verifyIssuer","outputs":[],"stateMutability":"nonpayable","type":"function"}],"evm":{"bytecode":{"linkReferences":{},"object":"608060405234801561001057600080fd5b50600280546001600160a01b03191633179055610c9a806100326000396000f3fe608060405234801561001057600080fd5b50600436106100885760003560e01c8063850c17681161005b578063850c176814610112578063c6cbc52a14610125578063f333fe0814610138578063f851a4401461015857600080fd5b80633ed46f7a1461008d57806360c000d4146100c5578063742f0688146100da57806375922c5d146100ff575b600080fd5b6100b061009b366004610908565b60016020526000908152604090205460ff1681565b60405190151581526020015b60405180910390f35b6100d86100d3366004610908565b610183565b005b6100ed6100e8366004610923565b61022a565b6040516100bc96959493929190610982565b6100d861010d3660046109e6565b6102f9565b6100b0610120366004610923565b6104ac565b6100d8610133366004610923565b6105c8565b61014b610146366004610923565b6107be565b6040516100bc9190610ab1565b60025461016b906001600160a01b031681565b6040516001600160a01b0390911681526020016100bc565b6002546001600160a01b031633146101cf5760405162461bcd60e51b815260206004820152600a60248201526927b7363c9030b236b4b760b11b60448201526064015b60405180910390fd5b6001600160a01b038116600081815260016020818152604092839020805460ff191690921790915590514281527fcf2d5149e3e281dc713efa90d9570fff2005763570178d0219f47a241ccde182910160405180910390a250565b6000602081905290815260409020805460018201546002830154600384015460048501805494956001600160a01b03948516959390941693919261026d90610b1b565b80601f016020809104026020016040519081016040528092919081815260200182805461029990610b1b565b80156102e65780601f106102bb576101008083540402835291602001916102e6565b820191906000526020600020905b8154815290600101906020018083116102c957829003601f168201915b5050506005909301549192505060ff1686565b3360009081526001602052604090205460ff1661034e5760405162461bcd60e51b8152602060048201526013602482015272125cdcdd595c881b9bdd081d995c9a599a5959606a1b60448201526064016101c6565b6000838152602081905260409020600101546001600160a01b0316156103b65760405162461bcd60e51b815260206004820152601a60248201527f436572746966696361746520616c72656164792065786973747300000000000060448201526064016101c6565b6040805160c0810182528481523360208083019182526001600160a01b03868116848601908152426060860190815260808601888152600060a088018190528b815294859052969093208551815593516001850180549184166001600160a01b03199283161790559051600285018054919093169116179055516003820155915190919060048201906104499082610ba4565b5060a091909101516005909101805460ff19169115159190911790556040514281526001600160a01b03831690339085907f8a9f2fdd359409354808bbba510d19f4d4facf7f77d5802fc3326db79a7302999060200160405180910390a4505050565b600081815260208181526040808320815160c0810183528154815260018201546001600160a01b03908116948201949094526002820154909316918301919091526003810154606083015260048101805484939291608084019161050f90610b1b565b80601f016020809104026020016040519081016040528092919081815260200182805461053b90610b1b565b80156105885780601f1061055d57610100808354040283529160200191610588565b820191906000526020600020905b81548152906001019060200180831161056b57829003601f168201915b50505091835250506005919091015460ff1615156020918201528101519091506001600160a01b0316158015906105c157508060a00151155b9392505050565b600081815260208181526040808320815160c0810183528154815260018201546001600160a01b03908116948201949094526002820154909316918301919091526003810154606083015260048101805460808401919061062890610b1b565b80601f016020809104026020016040519081016040528092919081815260200182805461065490610b1b565b80156106a15780601f10610676576101008083540402835291602001916106a1565b820191906000526020600020905b81548152906001019060200180831161068457829003601f168201915b50505091835250506005919091015460ff1615156020918201528101519091506001600160a01b03163314806106e157506002546001600160a01b031633145b61071e5760405162461bcd60e51b815260206004820152600e60248201526d139bdd08185d5d1a1bdc9a5e995960921b60448201526064016101c6565b8060a00151156107625760405162461bcd60e51b815260206004820152600f60248201526e105b1c9958591e481c995d9bdad959608a1b60448201526064016101c6565b60008281526020819052604090819020600501805460ff191660011790555182907fba2ff7aceccd1742d00e386f05d483c89cbb4e8ebf02234c436df1ec854261fd906107b29042815260200190565b60405180910390a25050565b6040805160c0810182526000808252602082018190529181018290526060808201839052608082015260a081019190915260008281526020818152604091829020825160c0810184528154815260018201546001600160a01b03908116938201939093526002820154909216928201929092526003820154606082015260048201805491929160808401919061085390610b1b565b80601f016020809104026020016040519081016040528092919081815260200182805461087f90610b1b565b80156108cc5780601f106108a1576101008083540402835291602001916108cc565b820191906000526020600020905b8154815290600101906020018083116108af57829003601f168201915b50505091835250506005919091015460ff16151560209091015292915050565b80356001600160a01b038116811461090357600080fd5b919050565b60006020828403121561091a57600080fd5b6105c1826108ec565b60006020828403121561093557600080fd5b5035919050565b6000815180845260005b8181101561096257602081850181015186830182015201610946565b506000602082860101526020601f19601f83011685010191505092915050565b8681526001600160a01b038681166020830152851660408201526060810184905260c0608082018190526000906109bb9083018561093c565b905082151560a0830152979650505050505050565b634e487b7160e01b600052604160045260246000fd5b6000806000606084860312156109fb57600080fd5b83359250610a0b602085016108ec565b9150604084013567ffffffffffffffff80821115610a2857600080fd5b818601915086601f830112610a3c57600080fd5b813581811115610a4e57610a4e6109d0565b604051601f8201601f19908116603f01168101908382118183101715610a7657610a766109d0565b81604052828152896020848701011115610a8f57600080fd5b8260208601602083013760006020848301015280955050505050509250925092565b60208152815160208201526000602083015160018060a01b038082166040850152806040860151166060850152505060608301516080830152608083015160c060a0840152610b0360e084018261093c565b905060a0840151151560c08401528091505092915050565b600181811c90821680610b2f57607f821691505b602082108103610b4f57634e487b7160e01b600052602260045260246000fd5b50919050565b601f821115610b9f57600081815260208120601f850160051c81016020861015610b7c5750805b601f850160051c820191505b81811015610b9b57828155600101610b88565b5050505b505050565b815167ffffffffffffffff811115610bbe57610bbe6109d0565b610bd281610bcc8454610b1b565b84610b55565b602080601f831160018114610c075760008415610bef5750858301515b600019600386901b1c1916600185901b178555610b9b565b600085815260208120601f198616915b82811015610c3657888601518255948401946001909101908401610c17565b5085821015610c545787850151600019600388901b60f8161c191681555b5050505050600190811b0190555056fea2646970667358221220070f7806fe51f39a49a0f101f1c63d83b45d4ec1a901c6df9ab08b513a54fd1f64736f6c63430008130033","opcodes":"PUSH1 0x80 PUSH1 0x40 MSTORE CALLVALUE DUP1 ISZERO PUSH2 0x10 JUMPI PUSH1 0x0 DUP1 REVERT JUMPDEST POP PUSH1 0x2 DUP1 SLOAD PUSH1 0x1 PUSH1 0x1 PUSH1 0xA0 SHL SUB NOT AND CALLER OR SWAP1 SSTORE PUSH2 0xC9A DUP1 PUSH2 0x32 PUSH1 0x0 CODECOPY PUSH1 0x0 RETURN INVALID PUSH1 0x80 PUSH1 0x40 MSTORE CALLVALUE DUP1 ISZERO PUSH2 0x10 JUMPI PUSH1 0x0 DUP1 REVERT JUMPDEST POP PUSH1 0x4 CALLDATASIZE LT PUSH2 0x88 JUMPI PUSH1 0x0 CALLDATALOAD PUSH1 0xE0 SHR DUP1 PUSH4 0x850C1768 GT PUSH2 0x5B JUMPI DUP1 PUSH4 0x850C1768 EQ PUSH2 0x112 JUMPI DUP1 PUSH4 0xC6CBC52A EQ PUSH2 0x125 JUMPI DUP1 PUSH4 0xF333FE08 EQ PUSH2 0x138 JUMPI DUP1 PUSH4 0xF851A440 EQ PUSH2 0x158 JUMPI PUSH1 0x0 DUP1 REVERT JUMPDEST DUP1 PUSH4 0x3ED46F7A EQ PUSH2 0x8D JUMPI DUP1 PUSH4 0x60C000D4 EQ PUSH2 0xC5 JUMPI DUP1 PUSH4 0x742F0688 EQ PUSH2 0xDA JUMPI DUP1 PUSH4 0x75922C5D EQ PUSH2 0xFF JUMPI JUMPDEST PUSH1 0x0 DUP1 REVERT JUMPDEST PUSH2 0xB0 PUSH2 0x9B CALLDATASIZE PUSH1 0x4 PUSH2 0x908 JUMP JUMPDEST PUSH1 0x1 PUSH1 0x20 MSTORE PUSH1 0x0 SWAP1 DUP2 MSTORE PUSH1 0x40 SWAP1 KECCAK256 SLOAD PUSH1 0xFF AND DUP2 JUMP JUMPDEST PUSH1 0x40 MLOAD SWAP1 ISZERO ISZERO DUP2 MSTORE PUSH1 0x20 ADD JUMPDEST PUSH1 0x40 MLOAD DUP1 SWAP2 SUB SWAP1 RETURN JUMPDEST PUSH2 0xD8 PUSH2 0xD3 CALLDATASIZE PUSH1 0x4 PUSH2 0x908 JUMP JUMPDEST PUSH2 0x183 JUMP JUMPDEST STOP JUMPDEST PUSH2 0xED PUSH2 0xE8 CALLDATASIZE PUSH1 0x4 PUSH2 0x923 JUMP JUMPDEST PUSH2 0x22A JUMP JUMPDEST PUSH1 0x40 MLOAD PUSH2 0xBC SWAP7 SWAP6 SWAP5 SWAP4 SWAP3 SWAP2 SWAP1 PUSH2 0x982 JUMP JUMPDEST PUSH2 0xD8 PUSH2 0x10D CALLDATASIZE PUSH1 0x4 PUSH2 0x9E6 JUMP JUMPDEST PUSH2 0x2F9 JUMP JUMPDEST PUSH2 0xB0 PUSH2 0x120 CALLDATASIZE PUSH1 0x4 PUSH2 0x923 JUMP JUMPDEST PUSH2 0x4AC JUMP JUMPDEST PUSH2 0xD8 PUSH2 0x133 CALLDATASIZE PUSH1 0x4 PUSH2 0x923 JUMP JUMPDEST PUSH2 0x5C8 JUMP JUMPDEST PUSH2 0x14B PUSH2 0x146 CALLDATASIZE PUSH1 0x4 PUSH2 0x923 JUMP JUMPDEST PUSH2 0x7BE JUMP JUMPDEST PUSH1 0x40 MLOAD PUSH2 0xBC SWAP2 SWAP1 PUSH2 0xAB1 JUMP JUMPDEST PUSH1 0x2 SLOAD PUSH2 0x16B SWAP1 PUSH1 0x1 PUSH1 0x1 PUSH1 0xA0 SHL SUB AND DUP2 JUMP JUMPDEST PUSH1 0x40 MLOAD PUSH1 0x1 PUSH1 0x1 PUSH1 0xA0 SHL SUB SWAP1 SWAP2 AND DUP2 MSTORE PUSH1 0x20 ADD PUSH2 0xBC JUMP JUMPDEST PUSH1 0x2 SLOAD PUSH1 0x1 PUSH1 0x1 PUSH1 0xA0 SHL SUB AND CALLER EQ PUSH2 0x1CF JUMPI PUSH1 0x40 MLOAD PUSH3 0x461BCD PUSH1 0xE5 SHL DUP2 MSTORE PUSH1 0x20 PUSH1 0x4 DUP3 ADD MSTORE PUSH1 0xA PUSH1 0x24 DUP3 ADD MSTORE PUSH10 0x27B7363C9030B236B4B7 PUSH1 0xB1 SHL PUSH1 0x44 DUP3 ADD MSTORE PUSH1 0x64 ADD JUMPDEST PUSH1 0x40 MLOAD DUP1 SWAP2 SUB SWAP1 REVERT JUMPDEST PUSH1 0x1 PUSH1 0x1 PUSH1 0xA0 SHL SUB DUP2 AND PUSH1 0x0 DUP2 DUP2 MSTORE PUSH1 0x1 PUSH1 0x20 DUP2 DUP2 MSTORE PUSH1 0x40 SWAP3 DUP4 SWAP1 KECCAK256 DUP1 SLOAD PUSH1 0xFF NOT AND SWAP1 SWAP3 OR SWAP1 SWAP2 SSTORE SWAP1 MLOAD TIMESTAMP DUP2 MSTORE PUSH32 0xCF2D5149E3E281DC713EFA90D9570FFF2005763570178D0219F47A241CCDE182 SWAP2 ADD PUSH1 0x40 MLOAD DUP1 SWAP2 SUB SWAP1 LOG2 POP JUMP JUMPDEST PUSH1 0x0 PUSH1 0x20 DUP2 SWAP1 MSTORE SWAP1 DUP2 MSTORE PUSH1 0x40 SWAP1 KECCAK256 DUP1 SLOAD PUSH1 0x1 DUP3 ADD SLOAD PUSH1 0x2 DUP4 ADD SLOAD PUSH1 0x3 DUP5 ADD SLOAD PUSH1 0x4 DUP6 ADD DUP1 SLOAD SWAP5 SWAP6 PUSH1 0x1 PUSH1 0x1 PUSH1 0xA0 SHL SUB SWAP5 DUP6 AND SWAP6 SWAP4 SWAP1 SWAP5 AND SWAP4 SWAP2 SWAP3 PUSH2 0x26D SWAP1 PUSH2 0xB1B JUMP JUMPDEST DUP1 PUSH1 0x1F ADD PUSH1 0x20 DUP1 SWAP2 DIV MUL PUSH1 0x20 ADD PUSH1 0x40 MLOAD SWAP1 DUP2 ADD PUSH1 0x40 MSTORE DUP1 SWAP3 SWAP2 SWAP1 DUP2 DUP2 MSTORE PUSH1 0x20 ADD DUP3 DUP1 SLOAD PUSH2 0x299 SWAP1 PUSH2 0xB1B JUMP JUMPDEST DUP1 ISZERO PUSH2 0x2E6 JUMPI DUP1 PUSH1 0x1F LT PUSH2 0x2BB JUMPI PUSH2 0x100 DUP1 DUP4 SLOAD DIV MUL DUP4 MSTORE SWAP2 PUSH1 0x20 ADD SWAP2 PUSH2 0x2E6 JUMP JUMPDEST DUP3 ADD SWAP2 SWAP1 PUSH1 0x0 MSTORE PUSH1 0x20 PUSH1 0x0 KECCAK256 SWAP1 JUMPDEST DUP2 SLOAD DUP2 MSTORE SWAP1 PUSH1 0x1 ADD SWAP1 PUSH1 0x20 ADD DUP1 DUP4 GT PUSH2 0x2C9 JUMPI DUP3 SWAP1 SUB PUSH1 0x1F AND DUP3 ADD SWAP2 JUMPDEST POP POP POP PUSH1 0x5 SWAP1 SWAP4 ADD SLOAD SWAP2 SWAP3 POP POP PUSH1 0xFF AND DUP7 JUMP JUMPDEST CALLER PUSH1 0x0 SWAP1 DUP2 MSTORE PUSH1 0x1 PUSH1 0x20 MSTORE PUSH1 0x40 SWAP1 KECCAK256 SLOAD PUSH1 0xFF AND PUSH2 0x34E JUMPI PUSH1 0x40 MLOAD PUSH3 0x461BCD PUSH1 0xE5 SHL DUP2 MSTORE PUSH1 0x20 PUSH1 0x4 DUP3 ADD MSTORE PUSH1 0x13 PUSH1 0x24 DUP3 ADD MSTORE PUSH19 0x125CDCDD595C881B9BDD081D995C9A599A5959 PUSH1 0x6A SHL PUSH1 0x44 DUP3 ADD MSTORE PUSH1 0x64 ADD PUSH2 0x1C6 JUMP JUMPDEST PUSH1 0x0 DUP4 DUP2 MSTORE PUSH1 0x20 DUP2 SWAP1 MSTORE PUSH1 0x40 SWAP1 KECCAK256 PUSH1 0x1 ADD SLOAD PUSH1 0x1 PUSH1 0x1 PUSH1 0xA0 SHL SUB AND ISZERO PUSH2 0x3B6 JUMPI PUSH1 0x40 MLOAD PUSH3 0x461BCD PUSH1 0xE5 SHL DUP2 MSTORE PUSH1 0x20 PUSH1 0x4 DUP3 ADD MSTORE PUSH1 0x1A PUSH1 0x24 DUP3 ADD MSTORE PUSH32 0x436572746966696361746520616C726561647920657869737473000000000000 PUSH1 0x44 DUP3 ADD MSTORE PUSH1 0x64 ADD PUSH2 0x1C6 JUMP JUMPDEST PUSH1 0x40 DUP1 MLOAD PUSH1 0xC0 DUP2 ADD DUP3 MSTORE DUP5 DUP2 MSTORE CALLER PUSH1 0x20 DUP1 DUP4 ADD SWAP2 DUP3 MSTORE PUSH1 0x1 PUSH1 0x1 PUSH1 0xA0 SHL SUB DUP7 DUP2 AND DUP5 DUP7 ADD SWAP1 DUP2 MSTORE TIMESTAMP PUSH1 0x60 DUP7 ADD SWAP1 DUP2 MSTORE PUSH1 0x80 DUP7 ADD DUP9 DUP2 MSTORE PUSH1 0x0 PUSH1 0xA0 DUP9 ADD DUP2 SWAP1 MSTORE DUP12 DUP2 MSTORE SWAP5 DUP6 SWAP1 MSTORE SWAP7 SWAP1 SWAP4 KECCAK256 DUP6 MLOAD DUP2 SSTORE SWAP4 MLOAD PUSH1 0x1 DUP6 ADD DUP1 SLOAD SWAP2 DUP5 AND PUSH1 0x1 PUSH1 0x1 PUSH1 0xA0 SHL SUB NOT SWAP3 DUP4 AND OR SWAP1 SSTORE SWAP1 MLOAD PUSH1 0x2 DUP6 ADD DUP1 SLOAD SWAP2 SWAP1 SWAP4 AND SWAP2 AND OR SWAP1 SSTORE MLOAD PUSH1 0x3 DUP3 ADD SSTORE SWAP2 MLOAD SWAP1 SWAP2 SWAP1 PUSH1 0x4 DUP3 ADD SWAP1 PUSH2 0x449 SWAP1 DUP3 PUSH2 0xBA4 JUMP JUMPDEST POP PUSH1 0xA0 SWAP2 SWAP1 SWAP2 ADD MLOAD PUSH1 0x5 SWAP1 SWAP2 ADD DUP1 SLOAD PUSH1 0xFF NOT AND SWAP2 ISZERO ISZERO SWAP2 SWAP1 SWAP2 OR SWAP1 SSTORE PUSH1 0x40 MLOAD TIMESTAMP DUP2 MSTORE PUSH1 0x1 PUSH1 0x1 PUSH1 0xA0 SHL SUB DUP4 AND SWAP1 CALLER SWAP1 DUP6 SWAP1 PUSH32 0x8A9F2FDD359409354808BBBA510D19F4D4FACF7F77D5802FC3326DB79A730299 SWAP1 PUSH1 0x20 ADD PUSH1 0x40 MLOAD DUP1 SWAP2 SUB SWAP1 LOG4 POP POP POP JUMP JUMPDEST PUSH1 0x0 DUP2 DUP2 MSTORE PUSH1 0x20 DUP2 DUP2 MSTORE PUSH1 0x40 DUP1 DUP4 KECCAK256 DUP2 MLOAD PUSH1 0xC0 DUP2 ADD DUP4 MSTORE DUP2 SLOAD DUP2 MSTORE PUSH1 0x1 DUP3 ADD SLOAD PUSH1 0x1 PUSH1 0x1 PUSH1 0xA0 SHL SUB SWAP1 DUP2 AND SWAP5 DUP3 ADD SWAP5 SWAP1 SWAP5 MSTORE PUSH1 0x2 DUP3 ADD SLOAD SWAP1 SWAP4 AND SWAP2 DUP4 ADD SWAP2 SWAP1 SWAP2 MSTORE PUSH1 0x3 DUP2 ADD SLOAD PUSH1 0x60 DUP4 ADD MSTORE PUSH1 0x4 DUP2 ADD DUP1 SLOAD DUP5 SWAP4 SWAP3 SWAP2 PUSH1 0x80 DUP5 ADD SWAP2 PUSH2 0x50F SWAP1 PUSH2 0xB1B JUMP JUMPDEST DUP1 PUSH1 0x1F ADD PUSH1 0x20 DUP1 SWAP2 DIV MUL PUSH1 0x20 ADD PUSH1 0x40 MLOAD SWAP1 DUP2 ADD PUSH1 0x40 MSTORE DUP1 SWAP3 SWAP2 SWAP1 DUP2 DUP2 MSTORE PUSH1 0x20 ADD DUP3 DUP1 SLOAD PUSH2 0x53B SWAP1 PUSH2 0xB1B JUMP JUMPDEST DUP1 ISZERO PUSH2 0x588 JUMPI DUP1 PUSH1 0x1F LT PUSH2 0x55D JUMPI PUSH2 0x100 DUP1 DUP4 SLOAD DIV MUL DUP4 MSTORE SWAP2 PUSH1 0x20 ADD SWAP2 PUSH2 0x588 JUMP JUMPDEST DUP3 ADD SWAP2 SWAP1 PUSH1 0x0 MSTORE PUSH1 0x20 PUSH1 0x0 KECCAK256 SWAP1 JUMPDEST DUP2 SLOAD DUP2 MSTORE SWAP1 PUSH1 0x1 ADD SWAP1 PUSH1 0x20 ADD DUP1 DUP4 GT PUSH2 0x56B JUMPI DUP3 SWAP1 SUB PUSH1 0x1F AND DUP3 ADD SWAP2 JUMPDEST POP POP POP SWAP2 DUP4 MSTORE POP POP PUSH1 0x5 SWAP2 SWAP1 SWAP2 ADD SLOAD PUSH1 0xFF AND ISZERO ISZERO PUSH1 0x20 SWAP2 DUP3 ADD MSTORE DUP2 ADD MLOAD SWAP1 SWAP2 POP PUSH1 0x1 PUSH1 0x1 PUSH1 0xA0 SHL SUB AND ISZERO DUP1 ISZERO SWAP1 PUSH2 0x5C1 JUMPI POP DUP1 PUSH1 0xA0 ADD MLOAD ISZERO JUMPDEST SWAP4 SWAP3 POP POP POP JUMP JUMPDEST PUSH1 0x0 DUP2 DUP2 MSTORE PUSH1 0x20 DUP2 DUP2 MSTORE PUSH1 0x40 DUP1 DUP4 KECCAK256 DUP2 MLOAD PUSH1 0xC0 DUP2 ADD DUP4 MSTORE DUP2 SLOAD DUP2 MSTORE PUSH1 0x1 DUP3 ADD SLOAD PUSH1 0x1 PUSH1 0x1 PUSH1 0xA0 SHL SUB SWAP1 DUP2 AND SWAP5 DUP3 ADD SWAP5 SWAP1 SWAP5 MSTORE PUSH1 0x2 DUP3 ADD SLOAD SWAP1 SWAP4 AND SWAP2 DUP4 ADD SWAP2 SWAP1 SWAP2 MSTORE PUSH1 0x3 DUP2 ADD SLOAD PUSH1 0x60 DUP4 ADD MSTORE PUSH1 0x4 DUP2 ADD DUP1 SLOAD PUSH1 0x80 DUP5 ADD SWAP2 SWAP1 PUSH2 0x628 SWAP1 PUSH2 0xB1B JUMP JUMPDEST DUP1 PUSH1 0x1F ADD PUSH1 0x20 DUP1 SWAP2 DIV MUL PUSH1 0x20 ADD PUSH1 0x40 MLOAD SWAP1 DUP2 ADD PUSH1 0x40 MSTORE DUP1 SWAP3 SWAP2 SWAP1 DUP2 DUP2 MSTORE PUSH1 0x20 ADD DUP3 DUP1 SLOAD PUSH2 0x654 SWAP1 PUSH2 0xB1B JUMP JUMPDEST DUP1 ISZERO PUSH2 0x6A1 JUMPI DUP1 PUSH1 0x1F LT PUSH2 0x676 JUMPI PUSH2 0x100 DUP1 DUP4 SLOAD DIV MUL DUP4 MSTORE SWAP2 PUSH1 0x20 ADD SWAP2 PUSH2 0x6A1 JUMP JUMPDEST DUP3 ADD SWAP2 SWAP1 PUSH1 0x0 MSTORE PUSH1 0x20 PUSH1 0x0 KECCAK256 SWAP1 JUMPDEST DUP2 SLOAD DUP2 MSTORE SWAP1 PUSH1 0x1 ADD SWAP1 PUSH1 0x20 ADD DUP1 DUP4 GT PUSH2 0x684 JUMPI DUP3 SWAP1 SUB PUSH1 0x1F AND DUP3 ADD SWAP2 JUMPDEST POP POP POP SWAP2 DUP4 MSTORE POP POP PUSH1 0x5 SWAP2 SWAP1 SWAP2 ADD SLOAD PUSH1 0xFF AND ISZERO ISZERO PUSH1 0x20 SWAP2 DUP3 ADD MSTORE DUP2 ADD MLOAD SWAP1 SWAP2 POP PUSH1 0x1 PUSH1 0x1 PUSH1 0xA0 SHL SUB AND CALLER EQ DUP1 PUSH2 0x6E1 JUMPI POP PUSH1 0x2 SLOAD PUSH1 0x1 PUSH1 0x1 PUSH1 0xA0 SHL SUB AND CALLER EQ JUMPDEST PUSH2 0x71E JUMPI PUSH1 0x40 MLOAD PUSH3 0x461BCD PUSH1 0xE5 SHL DUP2 MSTORE PUSH1 0x20 PUSH1 0x4 DUP3 ADD MSTORE PUSH1 0xE PUSH1 0x24 DUP3 ADD MSTORE PUSH14 0x139BDD08185D5D1A1BDC9A5E9959 PUSH1 0x92 SHL PUSH1 0x44 DUP3 ADD MSTORE PUSH1 0x64 ADD PUSH2 0x1C6 JUMP JUMPDEST DUP1 PUSH1 0xA0 ADD MLOAD ISZERO PUSH2 0x762 JUMPI PUSH1 0x40 MLOAD PUSH3 0x461BCD PUSH1 0xE5 SHL DUP2 MSTORE PUSH1 0x20 PUSH1 0x4 DUP3 ADD MSTORE PUSH1 0xF PUSH1 0x24 DUP3 ADD MSTORE PUSH15 0x105B1C9958591E481C995D9BDAD959 PUSH1 0x8A SHL PUSH1 0x44 DUP3 ADD MSTORE PUSH1 0x64 ADD PUSH2 0x1C6 JUMP JUMPDEST PUSH1 0x0 DUP3 DUP2 MSTORE PUSH1 0x20 DUP2 SWAP1 MSTORE PUSH1 0x40 SWAP1 DUP2 SWAP1 KECCAK256 PUSH1 0x5 ADD DUP1 SLOAD PUSH1 0xFF NOT AND PUSH1 0x1 OR SWAP1 SSTORE MLOAD DUP3 SWAP1 PUSH32 0xBA2FF7ACECCD1742D00E386F05D483C89CBB4E8EBF02234C436DF1EC854261FD SWAP1 PUSH2 0x7B2 SWAP1 TIMESTAMP DUP2 MSTORE PUSH1 0x20 ADD SWAP1 JUMP JUMPDEST PUSH1 0x40 MLOAD DUP1 SWAP2 SUB SWAP1 LOG2 POP POP JUMP JUMPDEST PUSH1 0x40 DUP1 MLOAD PUSH1 0xC0 DUP2 ADD DUP3 MSTORE PUSH1 0x0 DUP1 DUP3 MSTORE PUSH1 0x20 DUP3 ADD DUP2 SWAP1 MSTORE SWAP2 DUP2 ADD DUP3 SWAP1 MSTORE PUSH1 0x60 DUP1 DUP3 ADD DUP4 SWAP1 MSTORE PUSH1 0x80 DUP3 ADD MSTORE PUSH1 0xA0 DUP2 ADD SWAP2 SWAP1 SWAP2 MSTORE PUSH1 0x0 DUP3 DUP2 MSTORE PUSH1 0x20 DUP2 DUP2 MSTORE PUSH1 0x40 SWAP2 DUP3 SWAP1 KECCAK256 DUP3 MLOAD PUSH1 0xC0 DUP2 ADD DUP5 MSTORE DUP2 SLOAD DUP2 MSTORE PUSH1 0x1 DUP3 ADD SLOAD PUSH1 0x1 PUSH1 0x1 PUSH1 0xA0 SHL SUB SWAP1 DUP2 AND SWAP4 DUP3 ADD SWAP4 SWAP1 SWAP4 MSTORE PUSH1 0x2 DUP3 ADD SLOAD SWAP1 SWAP3 AND SWAP3 DUP3 ADD SWAP3 SWAP1 SWAP3 MSTORE PUSH1 0x3 DUP3 ADD SLOAD PUSH1 0x60 DUP3 ADD MSTORE PUSH1 0x4 DUP3 ADD DUP1 SLOAD SWAP2 SWAP3 SWAP2 PUSH1 0x80 DUP5 ADD SWAP2 SWAP1 PUSH2 0x853 SWAP1 PUSH2 0xB1B JUMP JUMPDEST DUP1 PUSH1 0x1F ADD PUSH1 0x20 DUP1 SWAP2 DIV MUL PUSH1 0x20 ADD PUSH1 0x40 MLOAD SWAP1 DUP2 ADD PUSH1 0x40 MSTORE DUP1 SWAP3 SWAP2 SWAP1 DUP2 DUP2 MSTORE PUSH1 0x20 ADD DUP3 DUP1 SLOAD PUSH2 0x87F SWAP1 PUSH2 0xB1B JUMP JUMPDEST DUP1 ISZERO PUSH2 0x8CC JUMPI DUP1 PUSH1 0x1F LT PUSH2 0x8A1 JUMPI PUSH2 0x100 DUP1 DUP4 SLOAD DIV MUL DUP4 MSTORE SWAP2 PUSH1 0x20 ADD SWAP2 PUSH2 0x8CC JUMP JUMPDEST DUP3 ADD SWAP2 SWAP1 PUSH1 0x0 MSTORE PUSH1 0x20 PUSH1 0x0 KECCAK256 SWAP1 JUMPDEST DUP2 SLOAD DUP2 MSTORE SWAP1 PUSH1 0x1 ADD SWAP1 PUSH1 0x20 ADD DUP1 DUP4 GT PUSH2 0x8AF JUMPI DUP3 SWAP1 SUB PUSH1 0x1F AND DUP3 ADD SWAP2 JUMPDEST POP POP POP SWAP2 DUP4 MSTORE POP POP PUSH1 0x5 SWAP2 SWAP1 SWAP2 ADD SLOAD PUSH1 0xFF AND ISZERO ISZERO PUSH1 0x20 SWAP1 SWAP2 ADD MSTORE SWAP3 SWAP2 POP POP JUMP JUMPDEST DUP1 CALLDATALOAD PUSH1 0x1 PUSH1 0x1 PUSH1 0xA0 SHL SUB DUP2 AND DUP2 EQ PUSH2 0x903 JUMPI PUSH1 0x0 DUP1 REVERT JUMPDEST SWAP2 SWAP1 POP JUMP JUMPDEST PUSH1 0x0 PUSH1 0x20 DUP3 DUP5 SUB SLT ISZERO PUSH2 0x91A JUMPI PUSH1 0x0 DUP1 REVERT JUMPDEST PUSH2 0x5C1 DUP3 PUSH2 0x8EC JUMP JUMPDEST PUSH1 0x0 PUSH1 0x20 DUP3 DUP5 SUB SLT ISZERO PUSH2 0x935 JUMPI PUSH1 0x0 DUP1 REVERT JUMPDEST POP CALLDATALOAD SWAP2 SWAP1 POP JUMP JUMPDEST PUSH1 0x0 DUP2 MLOAD DUP1 DUP5 MSTORE PUSH1 0x0 JUMPDEST DUP2 DUP2 LT ISZERO PUSH2 0x962 JUMPI PUSH1 0x20 DUP2 DUP6 ADD DUP2 ADD MLOAD DUP7 DUP4 ADD DUP3 ADD MSTORE ADD PUSH2 0x946 JUMP JUMPDEST POP PUSH1 0x0 PUSH1 0x20 DUP3 DUP7 ADD ADD MSTORE PUSH1 0x20 PUSH1 0x1F NOT PUSH1 0x1F DUP4 ADD AND DUP6 ADD ADD SWAP2 POP POP SWAP3 SWAP2 POP POP JUMP JUMPDEST DUP7 DUP2 MSTORE PUSH1 0x1 PUSH1 0x1 PUSH1 0xA0 SHL SUB DUP7 DUP2 AND PUSH1 0x20 DUP4 ADD MSTORE DUP6 AND PUSH1 0x40 DUP3 ADD MSTORE PUSH1 0x60 DUP2 ADD DUP5 SWAP1 MSTORE PUSH1 0xC0 PUSH1 0x80 DUP3 ADD DUP2 SWAP1 MSTORE PUSH1 0x0 SWAP1 PUSH2 0x9BB SWAP1 DUP4 ADD DUP6 PUSH2 0x93C JUMP JUMPDEST SWAP1 POP DUP3 ISZERO ISZERO PUSH1 0xA0 DUP4 ADD MSTORE SWAP8 SWAP7 POP POP POP POP POP POP POP JUMP JUMPDEST PUSH4 0x4E487B71 PUSH1 0xE0 SHL PUSH1 0x0 MSTORE PUSH1 0x41 PUSH1 0x4 MSTORE PUSH1 0x24 PUSH1 0x0 REVERT JUMPDEST PUSH1 0x0 DUP1 PUSH1 0x0 PUSH1 0x60 DUP5 DUP7 SUB SLT ISZERO PUSH2 0x9FB JUMPI PUSH1 0x0 DUP1 REVERT JUMPDEST DUP4 CALLDATALOAD SWAP3 POP PUSH2 0xA0B PUSH1 0x20 DUP6 ADD PUSH2 0x8EC JUMP JUMPDEST SWAP2 POP PUSH1 0x40 DUP5 ADD CALLDATALOAD PUSH8 0xFFFFFFFFFFFFFFFF DUP1 DUP3 GT ISZERO PUSH2 0xA28 JUMPI PUSH1 0x0 DUP1 REVERT JUMPDEST DUP2 DUP7 ADD SWAP2 POP DUP7 PUSH1 0x1F DUP4 ADD SLT PUSH2 0xA3C JUMPI PUSH1 0x0 DUP1 REVERT JUMPDEST DUP2 CALLDATALOAD DUP2 DUP2 GT ISZERO PUSH2 0xA4E JUMPI PUSH2 0xA4E PUSH2 0x9D0 JUMP JUMPDEST PUSH1 0x40 MLOAD PUSH1 0x1F DUP3 ADD PUSH1 0x1F NOT SWAP1 DUP2 AND PUSH1 0x3F ADD AND DUP2 ADD SWAP1 DUP4 DUP3 GT DUP2 DUP4 LT OR ISZERO PUSH2 0xA76 JUMPI PUSH2 0xA76 PUSH2 0x9D0 JUMP JUMPDEST DUP2 PUSH1 0x40 MSTORE DUP3 DUP2 MSTORE DUP10 PUSH1 0x20 DUP5 DUP8 ADD ADD GT ISZERO PUSH2 0xA8F JUMPI PUSH1 0x0 DUP1 REVERT JUMPDEST DUP3 PUSH1 0x20 DUP7 ADD PUSH1 0x20 DUP4 ADD CALLDATACOPY PUSH1 0x0 PUSH1 0x20 DUP5 DUP4 ADD ADD MSTORE DUP1 SWAP6 POP POP POP POP POP POP SWAP3 POP SWAP3 POP SWAP3 JUMP JUMPDEST PUSH1 0x20 DUP2 MSTORE DUP2 MLOAD PUSH1 0x20 DUP3 ADD MSTORE PUSH1 0x0 PUSH1 0x20 DUP4 ADD MLOAD PUSH1 0x1 DUP1 PUSH1 0xA0 SHL SUB DUP1 DUP3 AND PUSH1 0x40 DUP6 ADD MSTORE DUP1 PUSH1 0x40 DUP7 ADD MLOAD AND PUSH1 0x60 DUP6 ADD MSTORE POP POP PUSH1 0x60 DUP4 ADD MLOAD PUSH1 0x80 DUP4 ADD MSTORE PUSH1 0x80 DUP4 ADD MLOAD PUSH1 0xC0 PUSH1 0xA0 DUP5 ADD MSTORE PUSH2 0xB03 PUSH1 0xE0 DUP5 ADD DUP3 PUSH2 0x93C JUMP JUMPDEST SWAP1 POP PUSH1 0xA0 DUP5 ADD MLOAD ISZERO ISZERO PUSH1 0xC0 DUP5 ADD MSTORE DUP1 SWAP2 POP POP SWAP3 SWAP2 POP POP JUMP JUMPDEST PUSH1 0x1 DUP2 DUP2 SHR SWAP1 DUP3 AND DUP1 PUSH2 0xB2F JUMPI PUSH1 0x7F DUP3 AND SWAP2 POP JUMPDEST PUSH1 0x20 DUP3 LT DUP2 SUB PUSH2 0xB4F JUMPI PUSH4 0x4E487B71 PUSH1 0xE0 SHL PUSH1 0x0 MSTORE PUSH1 0x22 PUSH1 0x4 MSTORE PUSH1 0x24 PUSH1 0x0 REVERT JUMPDEST POP SWAP2 SWAP1 POP JUMP JUMPDEST PUSH1 0x1F DUP3 GT ISZERO PUSH2 0xB9F JUMPI PUSH1 0x0 DUP2 DUP2 MSTORE PUSH1 0x20 DUP2 KECCAK256 PUSH1 0x1F DUP6 ADD PUSH1 0x5 SHR DUP2 ADD PUSH1 0x20 DUP7 LT ISZERO PUSH2 0xB7C JUMPI POP DUP1 JUMPDEST PUSH1 0x1F DUP6 ADD PUSH1 0x5 SHR DUP3 ADD SWAP2 POP JUMPDEST DUP2 DUP2 LT ISZERO PUSH2 0xB9B JUMPI DUP3 DUP2 SSTORE PUSH1 0x1 ADD PUSH2 0xB88 JUMP JUMPDEST POP POP POP JUMPDEST POP POP POP JUMP JUMPDEST DUP2 MLOAD PUSH8 0xFFFFFFFFFFFFFFFF DUP2 GT ISZERO PUSH2 0xBBE JUMPI PUSH2 0xBBE PUSH2 0x9D0 JUMP JUMPDEST PUSH2 0xBD2 DUP2 PUSH2 0xBCC DUP5 SLOAD PUSH2 0xB1B JUMP JUMPDEST DUP5 PUSH2 0xB55 JUMP JUMPDEST PUSH1 0x20 DUP1 PUSH1 0x1F DUP4 GT PUSH1 0x1 DUP2 EQ PUSH2 0xC07 JUMPI PUSH1 0x0 DUP5 ISZERO PUSH2 0xBEF JUMPI POP DUP6 DUP4 ADD MLOAD JUMPDEST PUSH1 0x0 NOT PUSH1 0x3 DUP7 SWAP1 SHL SHR NOT AND PUSH1 0x1 DUP6 SWAP1 SHL OR DUP6 SSTORE PUSH2 0xB9B JUMP JUMPDEST PUSH1 0x0 DUP6 DUP2 MSTORE PUSH1 0x20 DUP2 KECCAK256 PUSH1 0x1F NOT DUP7 AND SWAP2 JUMPDEST DUP3 DUP2 LT ISZERO PUSH2 0xC36 JUMPI DUP9 DUP7 ADD MLOAD DUP3 SSTORE SWAP5 DUP5 ADD SWAP5 PUSH1 0x1 SWAP1 SWAP2 ADD SWAP1 DUP5 ADD PUSH2 0xC17 JUMP JUMPDEST POP DUP6 DUP3 LT ISZERO PUSH2 0xC54 JUMPI DUP8 DUP6 ADD MLOAD PUSH1 0x0 NOT PUSH1 0x3 DUP9 SWAP1 SHL PUSH1 0xF8 AND SHR NOT AND DUP2 SSTORE JUMPDEST POP POP POP POP POP PUSH1 0x1 SWAP1 DUP2 SHL ADD SWAP1 SSTORE POP JUMP INVALID LOG2 PUSH5 0x6970667358 0x22 SLT KECCAK256 SMOD 0xF PUSH25 0x6FE51F39A49A0F101F1C63D83B45D4EC1A901C6DF9AB08B51 GASPRICE SLOAD REVERT 0x1F PUSH5 0x736F6C6343 STOP ADDMOD SGT STOP CALLER "},"methodIdentifiers":{"admin()":"f851a440","certificates(bytes32)":"742f0688","getCertificate(bytes32)":"f333fe08","issueCertificate(bytes32,address,string)":"75922c5d","revokeCertificate(bytes32)":"c6cbc52a","verifiedIssuers(address)":"3ed46f7a","verifyCertificate(bytes32)":"850c1768","verifyIssuer(address)":"60c000d4"}}}}}