{
  "_format": "hh-sol-artifact-1",
  "contractName": "CertificateRegistry",
  "sourceName": "contracts/CertificateRegistry.sol",
  "abi": [
    {
      "inputs": [],
      "stateMutability": "nonpayable",
      "type": "constructor"
    },
    {
      "anonymous": false,
      "inputs": [
        {
          "indexed": true,
          "internalType": "bytes32",
          "name": "certificateHash",
          "type": "bytes32"
        },
        {
          "indexed": true,
          "internalType": "address",
          "name": "issuer",
          "type": "address"
        },
        {
          "indexed": true,
          "internalType": "address",
          "name": "student",
          "type": "address"
        },
        {
          "indexed": false,
          "internalType": "uint256",
          "name": "timestamp",
          "type": "uint256"
        }
      ],
      "name": "CertificateIssued",
      "type": "event"
    },
    {
      "anonymous": false,
      "inputs": [
        {
          "indexed": true,
          "internalType": "bytes32",
          "name": "certificateHash",
          "type": "bytes32"
        },
        {
          "indexed": false,
          "internalType": "uint256",
          "name": "timestamp",
          "type": "uint256"
        }
      ],
      "name": "CertificateRevoked",
      "type": "event"
    },
    {
      "anonymous": false,
      "inputs": [
        {
          "indexed": true,
          "internalType": "address",
          "name": "issuer",
          "type": "address"
        },
        {
          "indexed": false,
          "internalType": "uint256",
          "name": "timestamp",
          "type": "uint256"
        }
      ],
      "name": "IssuerVerified",
      "type": "event"
    },
    {
      "inputs": [],
      "name": "admin",
      "outputs": [
        {
          "internalType": "address",
          "name": "",
          "type": "address"
        }
      ],
      "stateMutability": "view",
      "type": "function"
    },
    {
      "inputs": [
        {
          "internalType": "bytes32",
          "name": "",
          "type": "bytes32"
        }
      ],
      "name": "certificates",
      "outputs": [
        {
          "internalType": "bytes32",
          "name": "certificateHash",
          "type": "bytes32"
        },
        {
          "internalType": "address",
          "name": "issuer",
          "type": "address"
        },
        {
          "internalType": "address",
          "name": "student",
          "type": "address"
        },
        {
          "internalType": "uint256",
          "name": "issuedAt",
          "type": "uint256"
        },
        {
          "internalType": "string",
          "name": "certificateType",
          "type": "string"
        },
        {
          "internalType": "bool",
          "name": "isRevoked",
          "type": "bool"
        }
      ],
      "stateMutability": "view",
      "type": "function"
    },
    {
      "inputs": [
        {
          "internalType": "bytes32",
          "name": "_certificateHash",
          "type": "bytes32"
        }
      ],
      "name": "getCertificate",
      "outputs": [
        {
          "components": [
            {
              "internalType": "bytes32",
              "name": "certificateHash",
              "type": "bytes32"
            },
            {
              "internalType": "address",
              "name": "issuer",
              "type": "address"
            },
            {
              "internalType": "address",
              "name": "student",
              "type": "address"
            },
            {
              "internalType": "uint256",
              "name": "issuedAt",
              "type": "uint256"
            },
            {
              "internalType": "string",
              "name": "certificateType",
              "type": "string"
            },
            {
              "internalType": "bool",
              "name": "isRevoked",
              "type": "bool"
            }
          ],
          "internalType": "struct CertificateRegistry.Certificate",
          "name": "",
          "type": "tuple"
        }
      ],
      "stateMutability": "view",
      "type": "function"
    },
    {
      "inputs": [
        {
          "internalType": "bytes32",
          "name": "_certificateHash",
          "type": "bytes32"
        },
        {
          "internalType": "address",
          "name": "_student",
          "type": "address"
        },
        {
          "internalType": "string",
          "name": "_certificateType",
          "type": "string"
        }
      ],
      "name": "issueCertificate",
      "outputs": [],
      "stateMutability": "nonpayable",
      "type": "function"
    },
    {
      "inputs": [
        {
          "internalType": "bytes32",
          "name": "_certificateHash",
          "type": "bytes32"
        }
      ],
      "name": "revokeCertificate",
      "outputs": [],
      "stateMutability": "nonpayable",
      "type": "function"
    },
    {
      "inputs": [
        {
          "internalType": "address",
          "name": "",
          "type": "address"
        }
      ],
      "name": "verifiedIssuers",
      "outputs": [
        {
          "internalType": "bool",
          "name": "",
          "type": "bool"
        }
      ],
      "stateMutability": "view",
      "type": "function"
    },
    {
      "inputs": [
        {
          "internalType": "bytes32",
          "name": "_certificateHash",
          "type": "bytes32"
        }
      ],
      "name": "verifyCertificate",
      "outputs": [
        {
          "internalType": "bool",
          "name": "",
          "type": "bool"
        }
      ],
      "stateMutability": "view",
      "type": "function"
    },
    {
      "inputs": [
        {
          "internalType": "address",
          "name": "_issuer",
          "type": "address"
        }
      ],
      "name": "verifyIssuer",
      "outputs": [],
      "stateMutability": "nonpayable",
      "type": "function"
    }
  ],
  "bytecode": "0x608060405234801561001057600080fd5b50600280546001600160a01b03191633179055610c9a806100326000396000f3fe608060405234801561001057600080fd5b50600436106100885760003560e01c8063850c17681161005b578063850c176814610112578063c6cbc52a14610125578063f333fe0814610138578063f851a4401461015857600080fd5b80633ed46f7a1461008d57806360c000d4146100c5578063742f0688146100da57806375922c5d146100ff575b600080fd5b6100b061009b366004610908565b60016020526000908152604090205460ff1681565b60405190151581526020015b60405180910390f35b6100d86100d3366004610908565b610183565b005b6100ed6100e8366004610923565b61022a565b6040516100bc96959493929190610982565b6100d861010d3660046109e6565b6102f9565b6100b0610120366004610923565b6104ac565b6100d8610133366004610923565b6105c8565b61014b610146366004610923565b6107be565b6040516100bc9190610ab1565b60025461016b906001600160a01b031681565b6040516001600160a01b0390911681526020016100bc565b6002546001600160a01b031633146101cf5760405162461bcd60e51b815260206004820152600a60248201526927b7363c9030b236b4b760b11b60448201526064015b60405180910390fd5b6001600160a01b038116600081815260016020818152604092839020805460ff191690921790915590514281527fcf2d5149e3e281dc713efa90d9570fff2005763570178d0219f47a241ccde182910160405180910390a250565b6000602081905290815260409020805460018201546002830154600384015460048501805494956001600160a01b03948516959390941693919261026d90610b1b565b80601f016020809104026020016040519081016040528092919081815260200182805461029990610b1b565b80156102e65780601f106102bb576101008083540402835291602001916102e6565b820191906000526020600020905b8154815290600101906020018083116102c957829003601f168201915b5050506005909301549192505060ff1686565b3360009081526001602052604090205460ff1661034e5760405162461bcd60e51b8152602060048201526013602482015272125cdcdd595c881b9bdd081d995c9a599a5959606a1b60448201526064016101c6565b6000838152602081905260409020600101546001600160a01b0316156103b65760405162461bcd60e51b815260206004820152601a60248201527f436572746966696361746520616c72656164792065786973747300000000000060448201526064016101c6565b6040805160c0810182528481523360208083019182526001600160a01b03868116848601908152426060860190815260808601888152600060a088018190528b815294859052969093208551815593516001850180549184166001600160a01b03199283161790559051600285018054919093169116179055516003820155915190919060048201906104499082610ba4565b5060a091909101516005909101805460ff19169115159190911790556040514281526001600160a01b03831690339085907f8a9f2fdd359409354808bbba510d19f4d4facf7f77d5802fc3326db79a7302999060200160405180910390a4505050565b600081815260208181526040808320815160c0810183528154815260018201546001600160a01b03908116948201949094526002820154909316918301919091526003810154606083015260048101805484939291608084019161050f90610b1b565b80601f016020809104026020016040519081016040528092919081815260200182805461053b90610b1b565b80156105885780601f1061055d57610100808354040283529160200191610588565b820191906000526020600020905b81548152906001019060200180831161056b57829003601f168201915b50505091835250506005919091015460ff1615156020918201528101519091506001600160a01b0316158015906105c157508060a00151155b9392505050565b600081815260208181526040808320815160c0810183528154815260018201546001600160a01b03908116948201949094526002820154909316918301919091526003810154606083015260048101805460808401919061062890610b1b565b80601f016020809104026020016040519081016040528092919081815260200182805461065490610b1b565b80156106a15780601f10610676576101008083540402835291602001916106a1565b820191906000526020600020905b81548152906001019060200180831161068457829003601f168201915b50505091835250506005919091015460ff1615156020918201528101519091506001600160a01b03163314806106e157506002546001600160a01b031633145b61071e5760405162461bcd60e51b815260206004820152600e60248201526d139bdd08185d5d1a1bdc9a5e995960921b60448201526064016101c6565b8060a00151156107625760405162461bcd60e51b815260206004820152600f60248201526e105b1c9958591e481c995d9bdad959608a1b60448201526064016101c6565b60008281526020819052604090819020600501805460ff191660011790555182907fba2ff7aceccd1742d00e386f05d483c89cbb4e8ebf02234c436df1ec854261fd906107b29042815260200190565b60405180910390a25050565b6040805160c0810182526000808252602082018190529181018290526060808201839052608082015260a081019190915260008281526020818152604091829020825160c0810184528154815260018201546001600160a01b03908116938201939093526002820154909216928201929092526003820154606082015260048201805491929160808401919061085390610b1b565b80601f016020809104026020016040519081016040528092919081815260200182805461087f90610b1b565b80156108cc5780601f106108a1576101008083540402835291602001916108cc565b820191906000526020600020905b8154815290600101906020018083116108af57829003601f168201915b50505091835250506005919091015460ff16151560209091015292915050565b80356001600160a01b038116811461090357600080fd5b919050565b60006020828403121561091a57600080fd5b6105c1826108ec565b60006020828403121561093557600080fd5b5035919050565b6000815180845260005b8181101561096257602081850181015186830182015201610946565b506000602082860101526020601f19601f83011685010191505092915050565b8681526001600160a01b038681166020830152851660408201526060810184905260c0608082018190526000906109bb9083018561093c565b905082151560a0830152979650505050505050565b634e487b7160e01b600052604160045260246000fd5b6000806000606084860312156109fb57600080fd5b83359250610a0b602085016108ec565b9150604084013567ffffffffffffffff80821115610a2857600080fd5b818601915086601f830112610a3c57600080fd5b813581811115610a4e57610a4e6109d0565b604051601f8201601f19908116603f01168101908382118183101715610a7657610a766109d0565b81604052828152896020848701011115610a8f57600080fd5b8260208601602083013760006020848301015280955050505050509250925092565b60208152815160208201526000602083015160018060a01b038082166040850152806040860151166060850152505060608301516080830152608083015160c060a0840152610b0360e084018261093c565b905060a0840151151560c08401528091505092915050565b600181811c90821680610b2f57607f821691505b602082108103610b4f57634e487b7160e01b600052602260045260246000fd5b50919050565b601f821115610b9f57600081815260208120601f850160051c81016020861015610b7c5750805b601f850160051c820191505b81811015610b9b57828155600101610b88565b5050505b505050565b815167ffffffffffffffff811115610bbe57610bbe6109d0565b610bd281610bcc8454610b1b565b84610b55565b602080601f831160018114610c075760008415610bef5750858301515b600019600386901b1c1916600185901b178555610b9b565b600085815260208120601f198616915b82811015610c3657888601518255948401946001909101908401610c17565b5085821015610c545787850151600019600388901b60f8161c191681555b5050505050600190811b0190555056fea2646970667358221220070f7806fe51f39a49a0f101f1c63d83b45d4ec1a901c6df9ab08b513a54fd1f64736f6c63430008130033",
  "linkReferences": {},
  "deployedLinkReferences": {}
}